:100000000C9462000C948A000C948A000C948A0070
:100010000C948A000C948A000C948A000C948A0038
:100020000C948A000C948A000C948A000C94160498
:100030000C948A000C948A000C948A000C948A0018
:100040000C9474030C948A000C94E4030C94BE0387
:100050000C948A000C948A000C948A000C948A00F8
:100060000C948A000C948A000000000023002600F3
:10007000290000000000240027002A0000000000E2
:10008000250028002B0004040404040404040202D4
:100090000202020203030303030301020408102007
:1000A0004080010204081020010204081020000012
:1000B0000008000201000003040700000000000027
:1000C0000000170511241FBECFEFD8E0DEBFCDBF63
:1000D00011E0A0E0B1E0E4E1F1E102C005900D9291
:1000E000AA31B107D9F721E0AAE1B1E001C01D9220
:1000F000AB3EB207E1F710E0C2E6D0E004C02197C2
:10010000FE010E948208C136D107C9F70E9474051A
:100110000C9488080C9400008F929F92AF92BF922B
:10012000FF920F931F93CF93DF93F090E8012BE0A2
:100130002F1508F44CC02091EA0108E512E0021BDB
:10014000110927FD1395000F111F000F111F20919A
:10015000E901C8E8D0E0C21BD10927FDD395CC0F37
:10016000DD1FCC0FDD1F4E010D2E000CAA08BB08B1
:100170009801012E000C440B550B281939094A0926
:100180005B09DC010E940C0724EB30E040E050E00A
:100190000E94E206820E931EA41EB51E8C169D06BA
:1001A0002CF0E801801691060CF4E4012297CC0FA4
:1001B000DD1F2FB7F8948F2D90E0FC01EE0FFF1F8D
:1001C000E80FF91FED53FE4FD283C1832FBFDF919C
:1001D000CF911F910F91FF90BF90AF909F908F9004
:1001E000089590E0FC01E255FF4F2491FC01E65692
:1001F000FF4F3491FC01EA57FF4FE491EE23C9F021
:10020000222339F0233001F1A8F4213019F12230F2
:1002100029F1F0E0EE0FFF1FE458FF4FA591B491D4
:100220008FB7F894EC91611126C030953E233C9332
:100230008FBF08952730A9F02830C9F0243049F73E
:10024000809180008F7D03C0809180008F778093A4
:100250008000DFCF84B58F7784BDDBCF84B58F7D01
:10026000FBCF8091B0008F778093B000D2CF809188
:10027000B0008F7DF9CF3E2BDACFCF93DF9390E0A4
:10028000FC01E656FF4F24918A579F4FFC01849151
:100290008823D1F090E0880F991FFC01EE58FF4FA2
:1002A000A591B491FC01E458FF4FC591D49161111F
:1002B0000EC09FB7F8948C91E22FE0958E238C931B
:1002C0002881E223E8839FBFDF91CF9108958FB704
:1002D000F894EC91E22BEC938FBFF6CF3FB7F894F4
:1002E0008091220190912301A0912401B0912501D8
:1002F00026B5A89B05C02F3F19F00196A11DB11D81
:100300003FBFBA2FA92F982F8827BC01CD01620FBC
:10031000711D811D911D42E0660F771F881F991F77
:100320004A95D1F70895AF92BF92CF92DF92EF92A4
:10033000FF920F931F93CF93DF936C017B018B018F
:10034000040F151FEB015E01AE18BF08C017D107DF
:1003500059F06991D601ED91FC910190F081E02D69
:10036000C6010995892B79F7C501DF91CF911F91BE
:100370000F91FF90EF90DF90CF90BF90AF900895D6
:10038000FC01538D448D252F30E0842F90E0821B9B
:10039000930B541710F0CF96089501970895FC0120
:1003A000918D828D981761F0A28DAE0FBF2FB11D78
:1003B0005D968C91928D9F5F9F73928F90E00895D0
:1003C0008FEF9FEF0895FC01918D828D981731F08A
:1003D000828DE80FF11D858D90E008958FEF9FEFDE
:1003E0000895FC01918D228D892F90E0805C9F4FB4
:1003F000821B91098F739927089586E291E00E94EC
:10040000F10121E0892B09F420E0822F089580E09A
:1004100090E0892B29F00E94FD0181110C940000CD
:100420000895FC01A48DA80FB92FB11DA35ABF4F89
:100430002C91848D90E001968F739927848FA689E3
:10044000B7892C93A089B1898C91837080648C9337
:10045000938D848D981306C00288F389E02D8081E6
:100460008F7D80830895EF92FF920F931F93CF9318
:10047000DF93EC0181E0888F9B8D8C8D98131AC0DF
:10048000E889F989808185FF15C09FB7F894EE89C6
:10049000FF896083E889F989808183708064808323
:1004A0009FBF81E090E0DF91CF911F910F91FF906E
:1004B000EF900895F62E0B8D10E00F5F1F4F0F7316
:1004C0001127E02E8C8D8E110CC00FB607FCFACFD1
:1004D000E889F989808185FFF5CFCE010E9411025C
:1004E000F1CFEB8DEC0FFD2FF11DE35AFF4FF082A2
:1004F0009FB7F8940B8FEA89FB8980818062CFCF08
:10050000CF93DF93EC01888D8823B9F0AA89BB894A
:10051000E889F9898C9185FD03C0808186FD0DC035
:100520000FB607FCF7CF8C9185FFF2CF808185FF56
:10053000EDCFCE010E941102E9CFDF91CF91089556
:10054000FC0101900020E9F73197AF01481B590BDE
:10055000BC0186E291E00C9493018F929F92AF923E
:10056000BF92CF92DF92EF92FF920F931F93CF93A0
:10057000DF93CDB7DEB7A1970FB6F894DEBF0FBEFD
:10058000CDBF6B017C01F7FE41C06DE286E291E0D8
:100590000E9433028C0122273327A9012C193D091F
:1005A0004E095F0919A2CE0181967C019AE0892E3D
:1005B000912CA12CB12CCA01B901A50194010E9472
:1005C0001407605DF70162937F0121153105410534
:1005D000510589F790E080E0309719F0CF010E9433
:1005E000A002800F911FA1960FB6F894DEBF0FBE38
:1005F000CDBFDF91CF911F910F91FF90EF90DF90D2
:10060000CF90BF90AF909F908F900895AC019B01C9
:1006100019A28E010F5D1F4F8AE0C82ED12CE12C4C
:10062000F12CCA01B901A70196010E941407605D6F
:10063000F80162938F01211531054105510589F7B4
:1006400090E080E0309779F2CF010E94A002CBCFFA
:100650000F931F9360E082E00E94F10083E090E03E
:100660000197F1F761E082E00E94F10083E290E0FF
:100670000197F1F760E082E00E94F100EDE9F0E01F
:100680006491E9E8F0E0E491F0E0EE0FFF1FE85933
:10069000FF4F8591949100E412E42FE030E0462F63
:1006A0000E94D204611571058105910529F06F5FE3
:1006B0007F4F8F4F9F4F9F700E947D0726E933E445
:1006C0004BE05DE30E94E10720E030E040E05FE3C3
:1006D0000E94E1070E94450770931C0160931B0173
:1006E000CB011F910F9108951F920F920FB60F9299
:1006F00011242F933F938F939F93AF93BF93809138
:100700001E0190911F01A0912001B0912101309113
:100710001D0123E0230F2D3758F50196A11DB11DB2
:1007200020931D0180931E0190931F01A09320012F
:10073000B09321018091220190912301A091240185
:10074000B09125010196A11DB11D809322019093C6
:100750002301A0932401B0932501BF91AF919F91F4
:100760008F913F912F910F900FBE0F901F90189572
:1007700026E8230F0296A11DB11DD2CF1F920F9222
:100780000FB60F9211242F933F934F935F936F9364
:100790007F938F939F93AF93BF93EF93FF9386E2E3
:1007A00091E00E941102FF91EF91BF91AF919F9153
:1007B0008F917F916F915F914F913F912F910F900A
:1007C0000FBE0F901F9018951F920F920FB60F92A9
:1007D00011242F938F939F93EF93FF93E091360112
:1007E000F09137018081E0913C01F0913D0182FD63
:1007F0001BC0908180913F018F5F8F7320914001DA
:10080000821741F0E0913F01F0E0EA5DFE4F958FE5
:1008100080933F01FF91EF919F918F912F910F90C6
:100820000FBE0F901F9018958081F4CF1F920F92EA
:100830000FB60F9211242F933F934F935F936F93B3
:100840007F938F939F93AF93BF93CF93DF93EF9358
:10085000FF9380911A01C091E701D0E087FF24C087
:10086000109285001092840080911A018F5F80930E
:100870001A0180911A01082E000C990B8C179D0704
:1008800024F480911A018C30C4F1809184009091FD
:100890008500049680349C4908F47AC080918400D5
:1008A00090918500049676C080911A01082E000C64
:1008B000990B8C179D07C4F6E0911A018E2FEE0F4D
:1008C000990BFC01EE0FFF1FE80FF91FED53FE4FD0
:1008D000808186FFC9CFE0911A018E2FEE0F990B10
:1008E000FC01EE0FFF1FE80FF91FED53FE4F808153
:1008F00060E08F730E94F100B7CF209184003091A7
:100900008500E0911A018E2FEE0F990BFC01EE0F7E
:10091000FF1FE80FF91FED53FE4F81819281820F77
:10092000931F9093890080938800E0911A018E2F85
:10093000EE0F990BFC01EE0FFF1FE80FF91FED53AF
:10094000FE4F808186FF11C0E0911A018E2FEE0FBD
:10095000990BFC01EE0FFF1FE80FF91FED53FE4F3F
:10096000808161E08F730E94F100FF91EF91DF9130
:10097000CF91BF91AF919F918F917F916F915F9137
:100980004F913F912F910F900FBE0F901F90189590
:1009900080E49CE990938900809388008FEF809396
:1009A0001A01E3CFCF92DF92EF92FF920F931F9342
:1009B000E82FF92F05C0015011092109310961F112
:1009C000908196239417B9F305C0015011092109AC
:1009D000310911F1908196239413F7CFC12CD12CBA
:1009E000E12CF12C0AC08FEFC81AD80AE80AF80ADD
:1009F0000C151D052E053F0579F08081862384178F
:100A000091F36C2D7D2D8E2D9F2D1F910F91FF90B9
:100A1000EF90DF90CF90089560E070E080E090E08C
:100A20001F910F91FF90EF90DF90CF90089510925B
:100A300029011092280188EE93E0A0E0B0E08093B5
:100A40002A0190932B01A0932C01B0932D0184E0F7
:100A500091E0909327018093260185EC90E090939C
:100A600033018093320184EC90E0909335018093C0
:100A7000340180EC90E0909337018093360181EC53
:100A800090E0909339018093380182EC90E090934C
:100A90003B0180933A0186EC90E090933D01809376
:100AA0003C0110923F0110924001109241011092BE
:100AB00042018091E7018C3098F491E0980F909377
:100AC000E7018093E80190E0FC01EE0FFF1FE80FC3
:100AD000F91FED53FE4F88EB9BE0928381830895CD
:100AE0008FEF8093E8010895789484B5826084BD87
:100AF00084B5816084BD85B5826085BD85B5816022
:100B000085BD80916E00816080936E00109281009F
:100B1000809181008260809381008091810081605A
:100B2000809381008091800081608093800080911B
:100B3000B10084608093B1008091B00081608093A7
:100B4000B00080917A00846080937A0080917A006E
:100B5000826080937A0080917A00816080937A002D
:100B600080917A00806880937A001092C10061E0E1
:100B700082E00E943D0160E083E00E943D01E0913F
:100B80003601F091370182E08083E0913201F091EB
:100B900033011082E0913401F09135018FEC8083B4
:100BA00010923E01E0913A01F0913B0186E0808392
:100BB000E0913801F0913901808180618083E0917A
:100BC0003801F0913901808188608083E09138019B
:100BD000F0913901808180688083E0913801F09143
:100BE000390180818F7D80838091E8018C3008F00D
:100BF00051C061E089E00E943D018091E801282F09
:100C000030E0F901EE0FFF1FE20FF31FED53FE4F2F
:100C10009081907C996090831092E9011092EA0192
:100C20002CE0622F0E947608829FB001112430E0F0
:100C300020E0AB01420F531FFA01EE0FFF1FE40F3C
:100C4000F51FED53FE4F908196FD16C02F5F3F4F6D
:100C50002C30310571F781110FC01092800082E0B5
:100C6000809381001092850010928400B19A809147
:100C70006F00826080936F00E091E8018E2F90E01A
:100C8000FC01EE0FFF1FE80FF91FED53FE4F8081AF
:100C900080648083C0E0D0E02FE0C22ED12CE12C14
:100CA000F12CC6010E948C000E94280390931C0125
:100CB00080931B01C701B6010E94AD0282E191E061
:100CC0000E94A00260911B0170911C01072E000C74
:100CD000880B990B0E94AD0284E191E00E94A00272
:100CE00086E191E00E94A0022FEFC21AD20AE20A26
:100CF000F20A86EAC816D104E104F10491F695EAF5
:100D0000C92ED12CE12CF12CC6010E948C000E942E
:100D10006E012B013C0182E3882E912CA12CB12C79
:100D20000E946E016419750986099709683E73402F
:100D300081059105A8F321E0821A9108A108B10864
:100D400088EE480E83E0581E611C711C81149104CA
:100D5000A104B10429F70E94280390931C018093F9
:100D60001B01C701B6010E94AD0282E191E00E9421
:100D7000A00260911B0170911C01072E000C880BD2
:100D8000990B0E94AD0284E191E00E94A00286E1ED
:100D900091E00E94A00281E0C81AD108E108F108A0
:100DA0002FE0C216D104E104F10409F0ADCF209781
:100DB00009F472CF0E94FD01882309F46DCF0E94CF
:100DC00000006ACF052E97FB1EF400940E94F906DE
:100DD00057FD07D00E94140707FC03D04EF40C9473
:100DE000F90650954095309521953F4F4F4F5F4FF5
:100DF000089590958095709561957F4F8F4F9F4F87
:100E000008950E943607A59F900DB49F900DA49F52
:100E1000800D911D11240895B7FF0C9401070E94C5
:100E20000107821B930B0895A1E21A2EAA1BBB1B7C
:100E3000FD010DC0AA1FBB1FEE1FFF1FA217B307A6
:100E4000E407F50720F0A21BB30BE40BF50B661FBC
:100E5000771F881F991F1A9469F760957095809580
:100E600090959B01AC01BD01CF010895A29FB001F7
:100E7000B39FC001A39F700D811D1124911DB29FCE
:100E8000700D811D1124911D08950E944C076894D6
:100E9000B1110C94DB0708950E94C00788F09F579A
:100EA00098F0B92F9927B751B0F0E1F0660F771F8E
:100EB000881F991F1AF0BA95C9F714C0B13091F084
:100EC0000E94DA07B1E008950C94DA07672F782FB3
:100ED0008827B85F39F0B93FCCF386957795679549
:100EE000B395D9F73EF490958095709561957F4FB5
:100EF0008F4F9F4F0895E89409C097FB3EF490955B
:100F00008095709561957F4F8F4F9F4F9923A9F0E2
:100F1000F92F96E9BB279395F69587957795679571
:100F2000B795F111F8CFFAF4BB0F11F460FF1BC0B5
:100F30006F5F7F4F8F4F9F4F16C0882311F096E948
:100F400011C0772321F09EE8872F762F05C06623F6
:100F500071F096E8862F70E060E02AF09A95660FAF
:100F6000771F881FDAF7880F9695879597F9089568
:100F700057FD9058440F551F59F05F3F71F047954A
:100F8000880F97FB991F61F09F3F79F0879508952F
:100F9000121613061406551FF2CF4695F1DF08C04E
:100FA000161617061806991FF1CF8695710561056B
:100FB00008940895E894BB2766277727CB0197F913
:100FC00008950E94F4070C9465080E94570838F0B1
:100FD0000E945E0820F0952311F00C944E080C94AA
:100FE000540811240C94DB070E94B80770F3959FF6
:100FF000C1F3950F50E0551F629FF001729FBB2710
:10100000F00DB11D639FAA27F00DB11DAA1F649FAB
:101010006627B00DA11D661F829F2227B00DA11D5E
:10102000621F739FB00DA11D621F839FA00D611DE4
:10103000221F749F3327A00D611D231F849F600D05
:10104000211D822F762F6A2F11249F5750409AF02E
:10105000F1F088234AF0EE0FFF1FBB1F661F771FBA
:10106000881F91505040A9F79E3F510580F00C9485
:101070004E080C94DB075F3FE4F3983ED4F386956B
:1010800077956795B795F795E7959F5FC1F7FE2B25
:10109000880F911D9695879597F9089597F99F6701
:1010A00080E870E060E008959FEF80EC08950024F0
:1010B0000A941616170618060906089500240A94BD
:1010C00012161306140605060895092E0394000C43
:1010D00011F4882352F0BB0F40F4BF2B11F460FFD2
:1010E00004C06F5F7F4F8F4F9F4F0895991B79E02A
:1010F00004C0991F961708F0961B881F7A95C9F7A8
:1011000080950895EE0FFF1F0590F491E02D09944E
:04111000F894FFCF81
:101114000000000033029301C0018002F101CF01FD
:0A112400E3012C002E000D0A00006C
:00000001FF
